:100000000C943A000C9444000C9444000C9444006A
:100010000C9444000C9444000C9444000C94440050
:100020000C9444000C9444000C9444000C94440040
:100030000C9444000C9444000C9444000C94440030
:100040000C9444000C9444000C9444000C94440020
:100050000C9444000C9444000C9444000C94440010
:100060000C9444000C9444000C9444000C94440000
:100070000C94440011241FBECFEFD2E0DEBFCDBFF1
:100080000E9446000C945F000C94000080E38AB943
:100090005C985D9A2FEF89E698E12150804090406E
:1000A000E1F700C000005C9A5D982FEF89E698E1C7
:1000B000215080409040E1F700C00000E9CFF89463
:0200C000FFCF70
:00000001FF
