:100000000C9434000C9451000C9451000C94510049
:100010000C9451000C9451000C9451000C9451001C
:100020000C9451000C9451000C9451000C9451000C
:100030000C9451000C9451000C9451000C945100FC
:100040000C9451000C9451000C945A000C945100E3
:100050000C9451000C9451000C9451000C945100DC
:100060000C9451000C94510011241FBECFEFD8E026
:10007000DEBFCDBF11E0A0E0B1E0E8EDF1E002C0ED
:1000800005900D92A030B107D9F721E0A0E0B1E0D2
:1000900001C01D92A230B207E1F70E94C5000C9486
:1000A000EA000C9400009091C00095FFFCCF809373
:1000B000C60008951F920F920FB60F9211242F932E
:1000C0003F934F935F936F937F938F939F93AF93E0
:1000D000BF93EF93FF938091C600809301018091BD
:1000E00001018A3421F489B18C7F0E9453008091F0
:1000F0000101823421F486B18F730E9453002A9A41
:100100002D9A81E080930001FF91EF91BF91AF9113
:100110009F918F917F916F915F914F913F912F911F
:100120000F900FBE0F901F9018951092C50087E694
:100130008093C400E1ECF0E0808188698083E2EC88
:10014000F0E080818A608083089526B12F7330E0CB
:1001500090E02817390751F429B12C7F30E070E086
:1001600081E02617370719F480E0089581E00895AB
:100170008FEF88B98BB987B18F6387B98AB18C6FDC
:100180008AB90E949500789408952FEF83ED90E34B
:10019000215080409040E1F700C000000E94B8006C
:1001A000D0E0C0E0CF3321F4DC3F11F42D9801C042
:1001B0002D9A6D2F8C2F0E94A500882331F0C6B197
:1001C000CF73D9B1DC7F2A982D9825E32A95F1F7D2
:0801D0000000E8CFF894FFCF16
:00000001FF
