S01100004578656D706C6F4B422E73726563AC
S113000095C00000AEC00000ACC00000AAC0000053
S1130010A8C00000A6C00000A4C00000A2C0000048
S1130020A0C000009EC000009CC00000AAC5000043
S113003098C0000096C0000094C0000092C0000068
S113004090C000008EC000008CC000008AC0000078
S113005088C0000086C0000084C0000082C0000088
S113006080C000007EC000007CC000007AC0000098
S113007078C00000240353005400490043004B009F
S11300805A0041004F00200044004100200050006D
S11300904F00520052004100000018034400650064
S11300A061006E002000430061006D006500720075
S11300B0610000000403090409022200010100C0D8
S11300C032090400000103010100092111010001AA
S11300D022400007058103080005120110010000F9
S11300E00008EB034220010001020001050109069A
S11300F0A101050719E029E71500250175019508F7
S113010081029501750881010508190129059505E4
S113011075019102950175039101150026FF0005F3
S113012007190029FF950675088100C011241FBE18
S1130130CFEFD2E0DEBFCDBF11E0A0E0B1E0E0E060
S1130140F0E102C005900D92A031B107D9F721E08A
S1130150A0E1B1E001C01D92A532B207E1F769D078
S11301604DC74ECF292F332723303105E1F058F402
S11301702130310599F02230310569F582E290E0B1
S113018028EB30E02CC02132310501F12232310557
S113019011F580E490E02CEE30E021C082E190E0A3
S11301A02AED30E01CC099278130910549F028F0F0
S11301B0029789F4E4E7F0E005C0E4EBF0E002C064
S11301C0EAE9F0E0849190E09F0109C089E090E0C1
S11301D02AEC30E004C080E090E020E030E0FA0156
S11301E03183208308959BB190628095892385B9DA
S11301F0089584B7877F84BF0FB6F894A89580913B
S11302006000886180936000109260000FBE90E0EF
S113021080E80FB6F89480936100909361000FBE5C
S1130220559A5D9A84B18F7184B985B1806E85B910
S113023099C4DFDF80E2D7DF789480E091E09DD13C
S1130240A6D6FBCF80E1CFCF80E2CDCF80E091E096
S113025081D19091E20094609093E200811102C0F8
S113026080E301C080E1BFCF80E091E040C0809195
S11302700E0190910F01009729F0019790930F01BF
S113028080930E0108950F931F9393B1909597FF58
S113029005C084E0F901828381E001C080E096FF1B
S11302A006C0F901E80FF11D45E042838F5F95FF19
S11302B006C0F901E80FF11D86E0828302C088239D
S11302C019F082E0F901808388E090E0F8019183DD
S11302D0808380E01F910F910895F901908190FF30
S11302E002C080E201C080E091FD80617CCF6F920A
S11302F07F928F929F92AF92BF92CF92DF92EF92B2
S1130300FF920F931F93CF93DF9300D01F92CDB72B
S1130310DEB77C01ADB6BEB68091E80083FF03C1B1
S1130320F701808190E0209121013091220128176A
S1130330390709F0F8C080911E01833009F49AC08E
S113034030F4813071F0823009F4D1C0ECC08A30CD
S113035009F4B5C08B3009F49EC0893009F0E3C0BC
S11303604CC080911D01813A09F0DDC08DB69EB666
S11303701A82198280911F01109120018B83F70149
S11303808085482F50E08DB79EB7841B950B0FB620
S1130390F8949EBF0FBE8DBFEDB7FEB731966F01C7
S11303A060E070E0CF0123D64FEF410F8E010F5F65
S11303B01F4F9601BE016D5F7F4FC70164DFF701D8
S11303C086819781009721F0408550E0B60106D6DA
S11303D01092E9008091E800877F8093E8008B8188
S11303E081118093F10069817A81C601C9D180911C
S11303F0E8008B778093E80037C080911D0181323B
S113040009F091C08DB69EB600912301109124018C
S113041070901F01609020018DB79EB7801B910BD7
S11304200FB6F8949EBF0FBE8DBFEDB7FEB73196E1
S11304306F018091E800877F8093E800B801CF01C5
S1130440FAD18091E8008E778093E80021E0711062
S113045001C020E030E0021B130B2C0D3D1D4FEFBB
S1130460460D672DC70139DF0FB6F8949EBE0FBE47
S11304708DBE59C080911D01813A09F054C080910C
S1130480E800877F8093E8008091E80080FFFCCF3C
S1130490F701818540C080911D01813209F043C07C
S11304A08091E800877F8093E800D1D290911F016A
S11304B081E0911101C080E0F701818734C080910F
S11304C01D01813281F58091E800877F8093E800E7
S11304D0BED280911F0190912001882736E0969525
S11304E087953A95E1F7F701958784871CC0809139
S11304F01D01813AC1F48091E800877F8093E80070
S11305008091E80080FFFCCFF7018485958596955E
S11305108795969587958093F1008091E8008E7772
S11305208093E80094D20FB6F894BEBE0FBEADBE61
S11305300F900F900F90DF91CF911F910F91FF902B
S1130540EF90DF90CF90BF90AF909F908F907F906F
S11305506F900895FC01399627E0DF011D922A95DA
S1130560E9F721E0FC01218724EF31E03587248776
S113057023E0248361E001962DC25F926F927F9203
S11305808F929F92AF92BF92CF92DF92EF92FF929F
S11305900F931F93CF93DF9300D01F92CDB7DEB795
S11305A07C01ADB6BEB680911C01843009F086C0D2
S11305B08091E4009091E500F701228533852817A6
S11305C0390709F47BC081818F708093E9008091A1
S11305D0E80085FF73C08DB69EB6408550E08DB7A8
S11305E09EB7841B950B0FB6F8949EBF0FBE8DBFAC
S11305F0EDB7FEB731966F011B821A82198260E053
S113060070E0CF01F4D48E010F5F1F4F960140E0DC
S1130610BE016D5F7F4FC70136DE582EF70184851A
S11306209585892B29F011E086859785892B09F01A
S113063010E0F701668077806114710481F04981CC
S11306405A81B301C601BDD401E0892B09F400E04D
S1130650F701408550E0B601C301C0D401C000E0F9
S113066089819A81892BF1F0511004C0011102C0D3
S113067010FF18C0F7018485958597878687818147
S11306808F708093E9008B8181118093F1006981DF
S11306907A8140E050E0C60129D08091E8008E774D
S11306A08093E8008091E4009091E500F70193873E
S11306B082870FB6F8949EBE0FBE8DBE0FB6F89417
S11306C0BEBE0FBEADBE0F900F900F90DF91CF91C5
S11306D01F910F91FF90EF90DF90CF90BF90AF905C
S11306E09F908F907F906F905F900895CF92DF924C
S11306F0EF92FF920F931F93CF93DF93EC018B0143
S11307007A01C4D1811133C0E114F10439F0F70145
S113071080819181081B190BC80FD91FC12CD12CC2
S11307200115110519F18091E80085FD16C080912D
S1130730E8008E778093E8002AD4E114F10449F0AC
S1130740F70180819181C80ED91ED182C08285E0D3
S11307500EC09CD1882321F30AC089918093F100B3
S113076001501109FFEFCF1ADF0ADACF80E0DF91E1
S1130770CF911F910F91FF90EF90DF90CF9008954C
S113078020912301309124012617370748F0611581
S1130790710539F42091E8002E772093E80001C018
S11307A0B901FC0120E06115710561F180911C0122
S11307B08823D9F18530D9F18091E80083FD39C0CF
S11307C08091E80082FD2BC08091E80080FFEBCF90
S11307D08091F20090E06115710551F08830910527
S11307E038F421912093F100615071090196F3CFFF
S11307F021E0089709F020E08091E8008E7780934B
S1130800E800D1CF2111D2CF0AC080911C018823E6
S113081061F0853061F08091E80083FD0AC0809129
S1130820E80082FFF2CF80E0089582E0089583E03B
S1130830089581E008956115710529F42091E80077
S11308402B772093E800FC016115710521F180915B
S11308501C01882341F1853041F18091E80083FD3A
S113086020C08091E80082FFEFCF8091F2008823BE
S113087031F08091F100819361507109B1F7809159
S1130880E8008B778093E800DFCF80911C018823F8
S113089051F0853051F08091E80080FFF6CF80E080
S11308A0089581E0089582E0089583E008952091F9
S11308B02301309124012617370748F0611571058B
S11308C039F42091E8002E772093E80001C0B901A3
S11308D0FC0120E06115710579F180911C018823E8
S11308E009F43DC0853009F43CC08091E80083FDE3
S11308F03AC08091E80082FD2CC08091E80080FF1E
S1130900E9CF8091F20090E06115710559F08830CB
S1130910910540F424912093F100319661507109BE
S11309200196F2CF21E0089709F020E08091E800D9
S11309308E778093E800CECF2111CFCF0AC080916B
S11309401C01882361F0853061F08091E80083FD0B
S11309500AC08091E80082FFF2CF80E0089582E02F
S1130960089583E0089581E00895982F953068F5FF
S11309709093E900981739F07091EC002091ED0004
S11309805091F00003C0242F762F50E021FD02C0C7
S11309909F5FECCF3091EB003E7F3093EB003091C2
S11309A0ED003D7F3093ED003091EB0031603093EA
S11309B0EB007093EC002093ED005093F000209135
S11309C0EE0027FDE5CF80E008958F708093E90065
S11309D081E008950F931F93CF93DF93062FEC01CB
S11309E010E0101771F19881911103C01F5F2596D3
S11309F0F8CF2C81A981BA816B81892F8F708530C2
S1130A0010F080E01FC0223010F442E001C046E044
S1130A10E8E0F0E020E0EA17FB0720F42F5FEE0F98
S1130A20FF1FF9CF2295207F422B6295660F660F38
S1130A30607C991F9927991F692B97DF8111D6CF65
S1130A40E0CF81E0DF91CF911F910F9108958091C4
S1130A501D0187FF11C08091E80082FD05C08091CF
S1130A601C018111F8CF11C08091E8008B770BC075
S1130A7080911C01882349F08091E80080FFF8CF21
S1130A808091E8008E778093E80008952091E40037
S1130A903091E50095E64091EC00842F817040FF91
S1130AA023C08091E80080FD1DC080911C01882333
S1130AB099F0853099F08091EB0085FD11C040914B
S1130AC0E4005091E5002417350729F3915011F003
S1130AD09A01E1CF84E0089582E0089583E00895C7
S1130AE081E0089580E008954091E80042FFDDCF61
S1130AF0089541D043D08091D8008F778093D80057
S1130B008091D80080688093D8008091D8008F7D30
S1130B108093D80084E089BD86E089BD09B400FED5
S1130B20FDCF10921C011092180110921A0110921C
S1130B30190142E060E080E018DF8091E1008E7FDF
S1130B408093E1008091E20081608093E2008091D3
S1130B50E20088608093E2008091E0008E7F8093C1
S1130B60E0000895E3E6F0E080818E7F808381E0F9
S1130B7080931B01BECF1092E20008951092E10011
S1130B8008951F920F920FB60F9211242F933F9343
S1130B904F935F936F937F938F939F93AF93BF9381
S1130BA0EF93FF938091E10082FF0AC08091E200FD
S1130BB082FF06C08091E1008B7F8093E10057DBC8
S1130BC08091E10080FF17C08091E20080FF13C094
S1130BD08091E2008E7F8093E2008091E200806148
S1130BE08093E2008091D80080628093D80019BC81
S1130BF010921C0129DB8091E10084FF2FC08091B9
S1130C00E20084FF2BC084E089BD86E089BD09B47D
S1130C1000FEFDCF8091D8008F7D8093D800809115
S1130C20E1008F7E8093E1008091E2008F7E8093CB
S1130C30E2008091E20081608093E20080911801DB
S1130C40882311F084E007C08091E30087FD02C08F
S1130C5081E001C083E080931C01F4DA8091E1001B
S1130C6083FF22C08091E20083FF1EC08091E100D7
S1130C70877F8093E10082E080931C011092180129
S1130C808091E1008E7F8093E1008091E2008E7F6D
S1130C908093E2008091E20080618093E20042E070
S1130CA060E080E062DE72D1FF91EF91BF91AF917D
S1130CB09F918F917F916F915F914F913F912F9170
S1130CC00F900FBE0F901F9018951F93CF93DF9333
S1130CD0CDB7DEB7AA970FB6F894DEBF0FBECDBF6F
S1130CE0EDE1F1E08091F100819321E0E532F2073A
S1130CF0C9F7BADA8091E80083FF30C180911D0101
S1130D0090911E01953009F483C030F49130A9F11B
S1130D1068F0933091F122C1983009F4EFC0993012
S1130D2009F4FBC0963009F019C194C0803821F051
S1130D30823809F013C108C08091190190911A01F9
S1130D40992389F082600FC0809121018F708530D2
S1130D5008F004C18093E9008091EB0085FB8827AB
S1130D6080F91092E9009091E800977F9093E80051
S1130D708093F1001092F100CCC0282F2D7F09F050
S1130D80EDC0882319F0823061F0E8C080911F0122
S1130D90813009F0E3C0933009F080E080931A01B8
S1130DA02EC080911F0181112AC0809121018F7072
S1130DB02FEF280F243008F0D1C08093E900209150
S1130DC0EB0020FF1CC0933021F48091EB00806283
S1130DD014C09091EB0090619093EB0021E030E01F
S1130DE0A90102C0440F551F8A95E2F74093EA0017
S1130DF01092EA008091EB0088608093EB001092DF
S1130E00E9008091E800877F8093E80020DEA6C097
S1130E108111A4C010911F011F778091E300807895
S1130E20812B8093E3008091E800877F8093E80022
S1130E300EDE8091E80080FFFCCF8091E3008068A3
S1130E408093E300111102C082E001C083E080932B
S1130E501C0184C08058823008F080C080911F013A
S1130E60909120018C3D53E0950771F583E08A83CE
S1130E708AE289834FB7F894DE01139620E03EE0BE
S1130E8051E2E32FF0E050935700E49120FF03C0B8
S1130E90E295EF703F5FEF708E2F90E0EA3010F034
S1130EA0C79601C0C0968D939D932F5F243149F757
S1130EB04FBF8091E800877F8093E8006AE270E08A
S1130EC0CE0101965DDC14C0609121017091220174
S1130ED0AE014F5F5F4F46D9BC01892B09F43EC078
S1130EE09091E800977F9093E80089819A81DFDCF4
S1130EF08091E8008B778093E80030C0803871F5EA
S1130F008091E800877F8093E800809118018093A6
S1130F10F1008091E8008E7777CF81111FC0809116
S1130F201F019091200199270297C4F48091E80051
S1130F30877F8093E80080911F018093180187DDEB
S1130F4080911801811106C08091E30087FD02C0E1
S1130F5081E001C084E080931C0178D98091E8008D
S1130F6083FF0AC08091E800877F8093E800809126
S1130F70EB0080628093EB00AA960FB6F894DEBF74
S1130F800FBECDBFDF91CF911F9108950895CF93E8
S1130F9080911C01882399F0C091E900CF70909151
S1130FA0EC00892F817090FD80E8C82B1092E90035
S1130FB08091E80083FD89DECF70C093E900CF9172
S1130FC00895FB01DC0104C08D910190801921F486
S1130FD041505040C8F7881B990B0895FB01DC0170
S1130FE002C001900D9241505040D8F70895DC01A1
S1130FF001C06D9341505040E0F70895F894FFCF3D
S11310000081080000011001080000000000000039
S9030000FC
